:03000000020003F8
:0C000300787FE4F6D8FD75812202004AE7
:1001AC00C2091202A8C209D20AC20BD20C120262F4
:1001BC0012024EE4FF1202A17B007A0079161202A1
:0D01CC008DAF161202ADAF1612013880EB98
:1001FE00D3EF9400EE940040147D707C00ED1D70E2
:0D020E00011CED4C70F7EF1F70E61E80E341
:01021B0022C0
:10017500A201E43325E0FFA202E4334207EF25E0C4
:10018500FFA203E4334207EF25E0FFA204E4334274
:100195000730000BEFC454F0FFE589540F8004E5E8
:0601A5008954F04FF589BA
:0101AB002231
:0D027300301005A211928E22A211928C2251
:0C028000020B000202090001020D000147
:0702A1008F08C291D29022E8
:020138008F171F
:10013A00E4F518D291C3E518940874809480501697
:10014A00AF0CAE0B1201FEE517339291E51725E0CD
:10015A00F517051880DFE5087010AF0CAE0B120119
:0A016A00FEC291AF0EAE0D1201FEB1
:010174002268
:0600E7008B0F8A10891145
:1000ED00E4F5122090FDE50C250AFFE50B3509FE20
:1000FD001201FEC3E512940874809480502CAB0F4E
:10010D00AA10A91112008F25E01200D5AB0FAA106D
:10011D00A91112008FFFA290B3E4334F1200D5AF97
:0A012D000CAE0B1201FE051280C992
:0101370022A5
:0502A800A20992AF2243
:10021C0030050DA20692AAA20792BAA208928A22CF
:0D022C00A20692A8A20792B8A2089288220A
:09029800A21292ACA21392BC2246
:10023900300D09A20E92ABA20F92BB22A20E92A977
:05024900A20F92B92292
:10024E00758780E589540F4420F589758BFD758D72
:04025E00FDD28E221D
:10026200A209929FA20A929EA20B929DA20C929C1C
:010272002269
:0502AD00C2998F9922A7
:0601D9008B138A14891546
:1001DF00E4FEAB13AA14A915AF060E8F8275830028
:0E01EF001200A8FF60081202AD2099E680FB06
:0101FD0022DF
:0B028D003098FDE5991200D5C29822C0
:10000F000201ACE493A3F8E493A34003F68001F25A
:10001F0008DFF48029E493A3F85407240CC8C333F2
:10002F00C4540F4420C8834004F456800146F6DFC1
:10003F00E4800B0102040810204080900280E47ECF
:10004F00019360BCA3FF543F30E509541FFEE493B6
:10005F00A360010ECF54C025E060A840B8E493A37D
:10006F00FAE493A3F8E493A3C8C582C8CAC583CAA8
:10007F00F0A3C8C582C8CAC583CADFE9DEE780BE60
:01028C000071
:10008F00BB010689828A83E0225002E722BBFE026F
:09009F00E32289828A83E49322A2
:1000A800BB010CE58229F582E5833AF583E022500D
:1000B80006E92582F8E622BBFE06E92582F8E22257
:0D00C800E58229F582E5833AF583E4932271
:1000D500BB010689828A83F0225002F722BBFE010A
:0200E500F32204
:00000001FF
