:030000000200AD4E
:0C00AD00787FE4F6D8FD7581200200F495
:03032100010800D0
:1002E500EF14600E14600F1460102403700F75A0D6
:0E02F500882275A0482275A0282275A0182224
:1001C400EF2402603114603314B40B0050679001C3
:1001D400D9F828287302020402020902020E02025C
:1001E4001302021802021D02022202022702022C3A
:1001F400020231020236758079803AE4F580803556
:1002040075803F8030758006802B75805B802675F5
:10021400804F8021758066801C75806D8017758085
:100224007D8012758007800D75807F800875806FD2
:0F023400800375804030000674802580F580229D
:04000300AB07AA0697
:10000700E4F5127509FF750DFF750CFF750BFF758C
:100017000AFFC3EA648094805048C3E49BFBE49AD8
:10002700FAEB4A6035AF12EF3395E0FEEF64034E0B
:1000370060707C007D0AAF03AE02120139AF05AED6
:10004700120512740A2EF8A6077C007D0AAF03AECC
:1000570002120139AA06AB0780C7740A2512F8767F
:100067000A22EB4A7003F50A22EB4A6038AF12EF17
:100077003395E0FEEF64044E60287C007D0AAF03F1
:10008700AE02120139AF05AE120512740A2EF8A698
:10009700077C007D0AAF03AE02120139AA06AB073F
:0500A70080C7750AFE90
:0100AC002231
:090318008F118E108D0F8C0E2246
:10029A00E4FEE50AFD3395E0FCBCFF0FBDFE0CE46D
:1002AA00FF1202E5C2007FFE0201C4C2007FFF12F4
:1002BA0001C4AF061202E5740A2EF8E6FFE509B595
:1002CA000603D38001C392001201C40EEEFD3395DA
:0B02DA00E0FCED64044C70D3FE80D00B
:1003030020B4037F012220B5037F022220B6037F9E
:0503130003227F00221F
:1002430075B0FFE4FF1202E5C2B01203038F08EF9B
:100253003395E04F6005C2001201C4D2B0C2B1129F
:100263000303EF2403F508FF3395E0FEEF64034E29
:100273006005C2001201C4D2B1C2B2120303EF245B
:1002830006F508FF3395E0FEEF64064E6005C200F5
:070293001201C4D2B280B1D8
:1000B900020243E493A3F8E493A34003F68001F218
:1000C90008DFF48029E493A3F85407240CC8C33348
:1000D900C4540F4420C8834004F456800146F6DF17
:1000E900E4800B0102040810204080900321E47E83
:1000F900019360BCA3FF543F30E509541FFEE4930C
:10010900A360010ECF54C025E060A840B8E493A3D2
:10011900FAE493A3F8E493A3C8C582C8CAC583CAFD
:10012900F0A3C8C582C8CAC583CADFE9DEE780BEB5
:0103240000D8
:10013900C2D5EC30E709B2D5E4C39DFDE49CFCEEE1
:1001490030E715B2D5E4C39FFFE49EFE12016FC3E9
:10015900E49DFDE49CFC800312016F30D507C3E4E4
:060169009FFFE49EFE2250
:10016F00BC000BBE0029EF8DF084FFADF022E4CC74
:10017F00F875F008EF2FFFEE33FEEC33FCEE9DEC3D
:10018F00984005FCEE9DFE0FD5F0E9E4CEFD22ED83
:10019F00F8F5F0EE8420D21CFEADF075F008EF2FCD
:1001AF00FFED33FD4007985006D5F0F222C398FDBE
:0501BF000FD5F0EA225B
:00000001FF
