:03000000020003F8
:0C000300787FE4F6D8FD75812002004AE9
:040124000208006469
:1000C6007590FFC290D293C291AF09AE081200F9A3
:1000D600D290C292AF09AE081200F9D291C293AF84
:1000E60009AE081200F9D292C290AF09AE0812000A
:0300F600F980D2BC
:1000F900D3EF9400EE940040147D707C00ED1D70E8
:0D010900011CED4C70F7EF1F70E61E80E347
:0101160022C6
:10008F00A201E43325E0FFA202E4334207EF25E0AB
:10009F00FFA203E4334207EF25E0FFA204E433425B
:1000AF000730000BEFC454F0FFE589540F8004E5CF
:0600BF008954F04FF589A1
:0100C5002218
:0D011700300505A206928E22A206928C22CF
:10000F000200C6E493A3F8E493A34003F68001F241
:10001F0008DFF48029E493A3F85407240CC8C333F2
:10002F00C4540F4420C8834004F456800146F6DFC1
:10003F00E4800B0102040810204080900124E47E2C
:10004F00019360BCA3FF543F30E509541FFEE493B6
:10005F00A360010ECF54C025E060A840B8E493A37D
:10006F00FAE493A3F8E493A3C8C582C8CAC583CAA8
:10007F00F0A3C8C582C8CAC583CADFE9DEE780BE60
:0101280000D6
:00000001FF
