:0300000002017F7B
:0C017F00787FE4F6D8FD75812102013A7A
:0E013A00759080E590C313F59012014880F592
:0101FF0022DD
:0401FA007F02DFFEA3
:0101FE0022DE
:0501F400007F2BDFFE7F
:0101F90022E3
:0901B700007F027EC7DEFEDFFCC2
:0101C000221C
:0801CB007F127EEBDEFEDFFC7B
:0101D3002209
:0801D4007FB47E49DEFEDFFC72
:0101DC002200
:0D014800007F087E017DF3DDFEDEFCDFFAA6
:010155002287
:0D015600007F477E0A7DABDDFEDEFCDFFA98
:010163002279
:0D016400007FBD7E617DDEDDFEDEFCDFFA8A
:01017100226B
:1000AA00A201E43325E0FFA202E4334207EF25E090
:1000BA00FFA203E4334207EF25E0FFA204E4334240
:1000CA000730000BEFC454F0FFE589540F8004E5B4
:0600DA008954F04FF58986
:0100E00022FD
:0D017200300905A20A928E22A20A928C2268
:10010300758780E589540F4420F589758BFD758DBE
:04011300FDD28E2269
:10011700A205929FA206929EA207929DA208929C78
:03012700D2992248
:0801DD003099FDC2998F9922AF
:0600E1008B088A09890A60
:1000E700E4FEAB08AA09A90AAF060E8F8275830042
:0B00F70012006B6006FF1201DD80E7C5
:0101020022DA
:0B018B003098FDE599120098C2982200
:0A019600C290D291D2A5AF80C2A59D
:0101A000223C
:0701E500120196EF5480FFA8
:0101EC0022F0
:0701ED001201E5EF70FA2298
:0B01A100C290C2918F80D2A5C2A5229F
:0A01C100AE071201EDAF060201A126
:0A01AC00D290D291D2A5AF80C2A577
:0101B6002226
:10012A00AE071201EDD290C2918E80D2A5C2A5224D
:10000300750B0FC2A5AF0B150BD3EF94007480943F
:100013008040051201B780ED7F381201A1750B05F1
:10002300D3E50B94007480948040071201B7150B3D
:1000330080EE7F381201A1750B05D3E50B94007494
:1000430080948040071201B7150B80EE7F381201B0
:10005300A11201C17F081201C17F011201C17F06F4
:080063001201C17F0C0201C172
:10006B00BB010CE58229F582E5833AF583E022504A
:10007B0006E92582F8E622BBFE06E92582F8E22294
:0D008B00E58229F582E5833AF583E49322AE
:10009800BB010689828A83F0225002F722BBFE0147
:0200A800F32241
:00000001FF
