:03000000020003F8
:0C000300787FE4F6D8FD75812202004AE7
:1001AC00C2091202A3C209D20AC20BC20C12025D0E
:1001BC001202497F0112029C7B007A00790F120017
:0801CC00E7AF0F1202A880F05A
:0C026E00020B000202090001020D000159
:07029C008F08C291D29022ED
:020138008F171F
:10013A00E4F518D291C3E518940874809480501697
:10014A00AF0CAE0B1201F9E517339291E51725E0D2
:10015A00F517051880DFE5087010AF0CAE0B120119
:0A016A00F9C291AF0EAE0D1201F9BB
:010174002268
:0600E7008B108A11891242
:1000ED00E4F5132090FDE50C250AFFE50B3509FE1F
:1000FD001201F9C3E513940874809480502CAB1051
:10010D00AA11A91212008F25E01200D5AB10AA1169
:10011D00A91212008FFFA290B3E4334F1200D5AF96
:0A012D000CAE0B1201F9051380C996
:0101370022A5
:0502A300A20992AF2248
:1002170030050DA20692AAA20792BAA208928A22D4
:0D022700A20692A8A20792B8A2089288220F
:09029300A21092ACA21192BC224F
:10023400300D09A20E92ABA20F92BB22A20E92A97C
:05024400A20F92B92297
:1001F900D3EF9400EE940040147D707C00ED1D70E7
:0D020900011CED4C70F7EF1F70E61E80E346
:0102160022C5
:10017500A201E43325E0FFA202E4334207EF25E0C4
:10018500FFA203E4334207EF25E0FFA204E4334274
:100195000730000BEFC454F0FFE589540F8004E5E8
:0601A5008954F04FF589BA
:0101AB002231
:0D027B00301205A213928E22A213928C2243
:10024900758780E589540F4420F589758BFD758D77
:04025900FDD28E2222
:10025D00A209929FA20A929EA20B929DA20C929C21
:01026D00226E
:0502A800C2998F9922AC
:0601D4008B148A15891648
:1001DA00E4FEAB14AA15A916AF060E8F827583002A
:0E01EA001200A8FF60081202A82099E680FB10
:0101F80022E4
:0B0288003098FDE5991200D5C29822C5
:10000F000201ACE493A3F8E493A34003F68001F25A
:10001F0008DFF48029E493A3F85407240CC8C333F2
:10002F00C4540F4420C8834004F456800146F6DFC1
:10003F00E4800B010204081020408090026EE47EE1
:10004F00019360BCA3FF543F30E509541FFEE493B6
:10005F00A360010ECF54C025E060A840B8E493A37D
:10006F00FAE493A3F8E493A3C8C582C8CAC583CAA8
:10007F00F0A3C8C582C8CAC583CADFE9DEE780BE60
:01027A000083
:10008F00BB010689828A83E0225002E722BBFE026F
:09009F00E32289828A83E49322A2
:1000A800BB010CE58229F582E5833AF583E022500D
:1000B80006E92582F8E622BBFE06E92582F8E22257
:0D00C800E58229F582E5833AF583E4932271
:1000D500BB010689828A83F0225002F722BBFE010A
:0200E500F32204
:00000001FF
